{
  "contractName": "LiquidDemocracy",
  "abi": [
    {
      "constant": true,
      "inputs": [
        {
          "name": "",
          "type": "uint256"
        }
      ],
      "name": "proposals",
      "outputs": [
        {
          "name": "id",
          "type": "uint256"
        },
        {
          "name": "proposalName",
          "type": "string"
        },
        {
          "name": "votes",
          "type": "uint256"
        },
        {
          "name": "expiry",
          "type": "uint256"
        },
        {
          "name": "approved",
          "type": "bool"
        }
      ],
      "payable": false,
      "stateMutability": "view",
      "type": "function",
      "signature": "0x013cf08b"
    },
    {
      "inputs": [],
      "payable": false,
      "stateMutability": "nonpayable",
      "type": "constructor",
      "signature": "constructor"
    },
    {
      "anonymous": false,
      "inputs": [
        {
          "indexed": false,
          "name": "",
          "type": "address"
        }
      ],
      "name": "memberAdded",
      "type": "event",
      "signature": "0xdbfcb877450159cfc3af51c0e4fd98de8b92ebb8fe2b8ee929f3320c5c5a8970"
    },
    {
      "anonymous": false,
      "inputs": [
        {
          "indexed": false,
          "name": "",
          "type": "string"
        },
        {
          "indexed": false,
          "name": "",
          "type": "uint256"
        }
      ],
      "name": "proposalApproved",
      "type": "event",
      "signature": "0x4174b8d2797ad28407354d15d8ee1f803654b26289642e4398b502fd0f3d0395"
    },
    {
      "constant": false,
      "inputs": [
        {
          "name": "_member",
          "type": "address"
        }
      ],
      "name": "addMember",
      "outputs": [],
      "payable": false,
      "stateMutability": "nonpayable",
      "type": "function",
      "signature": "0xca6d56dc"
    },
    {
      "constant": false,
      "inputs": [
        {
          "name": "proposal",
          "type": "string"
        },
        {
          "name": "expiry",
          "type": "uint256"
        }
      ],
      "name": "addProposal",
      "outputs": [],
      "payable": false,
      "stateMutability": "nonpayable",
      "type": "function",
      "signature": "0xc208abdc"
    },
    {
      "constant": false,
      "inputs": [
        {
          "name": "id",
          "type": "uint256"
        }
      ],
      "name": "vote",
      "outputs": [],
      "payable": false,
      "stateMutability": "nonpayable",
      "type": "function",
      "signature": "0x0121b93f"
    }
  ],
  "bytecode": "0x608060405234801561001057600080fd5b50336000806101000a81548173ffffffffffffffffffffffffffffffffffffffff021916908373ffffffffffffffffffffffffffffffffffffffff1602179055506001600360008060009054906101000a900473ffffffffffffffffffffffffffffffffffffffff1673ffffffffffffffffffffffffffffffffffffffff1673ffffffffffffffffffffffffffffffffffffffff16815260200190815260200160002060006101000a81548160ff0219169083151502179055506001808190555060016002819055506109df806100e86000396000f3fe608060405260043610610062576000357c0100000000000000000000000000000000000000000000000000000000900463ffffffff1680630121b93f14610067578063013cf08b146100a2578063c208abdc14610176578063ca6d56dc14610206575b600080fd5b34801561007357600080fd5b506100a06004803603602081101561008a57600080fd5b8101908080359060200190929190505050610257565b005b3480156100ae57600080fd5b506100db600480360360208110156100c557600080fd5b8101908080359060200190929190505050610550565b604051808681526020018060200185815260200184815260200183151515158152602001828103825286818151815260200191508051906020019080838360005b8381101561013757808201518184015260208101905061011c565b50505050905090810190601f1680156101645780820380516001836020036101000a031916815260200191505b50965050505050505060405180910390f35b34801561018257600080fd5b506102046004803603604081101561019957600080fd5b81019080803590602001906401000000008111156101b657600080fd5b8201836020820111156101c857600080fd5b803590602001918460018302840111640100000000831117156101ea57600080fd5b90919293919293908035906020019092919050505061062b565b005b34801561021257600080fd5b506102556004803603602081101561022957600080fd5b81019080803573ffffffffffffffffffffffffffffffffffffffff169060200190929190505050610788565b005b60011515600360003373ffffffffffffffffffffffffffffffffffffffff1673ffffffffffffffffffffffffffffffffffffffff16815260200190815260200160002060009054906101000a900460ff1615151415156102b657600080fd5b600154811015156102c657600080fd5b6004600082815260200190815260200160002060030154421015156102ea57600080fd5b60001515600560003373ffffffffffffffffffffffffffffffffffffffff1673ffffffffffffffffffffffffffffffffffffffff168152602001908152602001600020600083815260200190815260200160002060009054906101000a900460ff16151514151561035a57600080fd5b6001600560003373ffffffffffffffffffffffffffffffffffffffff1673ffffffffffffffffffffffffffffffffffffffff168152602001908152602001600020600083815260200190815260200160002060006101000a81548160ff0219169083151502179055506004600082815260200190815260200160002060020160008154809291906001019190505550600280548115156103f657fe5b0460046000838152602001908152602001600020600201541180156104425750600015156004600083815260200190815260200160002060040160009054906101000a900460ff161515145b1561054d5760016004600083815260200190815260200160002060040160006101000a81548160ff0219169083151502179055507f4174b8d2797ad28407354d15d8ee1f803654b26289642e4398b502fd0f3d03956004600083815260200190815260200160002060010142604051808060200183815260200182810382528481815460018160011615610100020316600290048152602001915080546001816001161561010002031660029004801561053d5780601f106105125761010080835404028352916020019161053d565b820191906000526020600020905b81548152906001019060200180831161052057829003601f168201915b5050935050505060405180910390a15b50565b6004602052806000526040600020600091509050806000015490806001018054600181600116156101000203166002900480601f0160208091040260200160405190810160405280929190818152602001828054600181600116156101000203166002900480156106025780601f106105d757610100808354040283529160200191610602565b820191906000526020600020905b8154815290600101906020018083116105e557829003601f168201915b5050505050908060020154908060030154908060040160009054906101000a900460ff16905085565b60011515600360003373ffffffffffffffffffffffffffffffffffffffff1673ffffffffffffffffffffffffffffffffffffffff16815260200190815260200160002060009054906101000a900460ff16151514151561068a57600080fd5b60a060405190810160405280600154815260200184848080601f016020809104026020016040519081016040528093929190818152602001838380828437600081840152601f19601f8201169050808301925050505050505081526020016000815260200182420181526020016000151581525060046000600154815260200190815260200160002060008201518160000155602082015181600101908051906020019061073992919061090e565b50604082015181600201556060820151816003015560808201518160040160006101000a81548160ff021916908315150217905550905050600160008154809291906001019190505550505050565b6000809054906101000a900473ffffffffffffffffffffffffffffffffffffffff1673ffffffffffffffffffffffffffffffffffffffff163373ffffffffffffffffffffffffffffffffffffffff161415156107e357600080fd5b6000809054906101000a900473ffffffffffffffffffffffffffffffffffffffff1673ffffffffffffffffffffffffffffffffffffffff163373ffffffffffffffffffffffffffffffffffffffff1614151561083e57600080fd5b6001600360008373ffffffffffffffffffffffffffffffffffffffff1673ffffffffffffffffffffffffffffffffffffffff16815260200190815260200160002060006101000a81548160ff0219169083151502179055506002600081548092919060010191905055507fdbfcb877450159cfc3af51c0e4fd98de8b92ebb8fe2b8ee929f3320c5c5a897081604051808273ffffffffffffffffffffffffffffffffffffffff1673ffffffffffffffffffffffffffffffffffffffff16815260200191505060405180910390a150565b828054600181600116156101000203166002900490600052602060002090601f016020900481019282601f1061094f57805160ff191683800117855561097d565b8280016001018555821561097d579182015b8281111561097c578251825591602001919060010190610961565b5b50905061098a919061098e565b5090565b6109b091905b808211156109ac576000816000905550600101610994565b5090565b9056fea165627a7a723058202c467c54d6892e83c9eb19599e16493e4cd1ddf9cc82d67b91da826191a7ea8f0029",
  "source": "pragma solidity ^0.5.0;\n\ncontract LiquidDemocracy{\n    struct Proposal{\n        uint id;\n        string proposalName;\n        uint votes;\n        uint expiry;\n        bool approved;\n    }\n    address admin;\n    uint nextProposalId;\n    uint numMembers;\n    mapping(address=>bool) members;\n    mapping(uint=>Proposal)public proposals;\n    mapping(address=>mapping(uint=>bool))voted;\n    \n    event memberAdded(address);\n    event proposalApproved(string,uint);\n    \n    constructor()public {\n        admin = msg.sender;\n        members[admin] = true;\n        nextProposalId=1;\n        numMembers=1;\n    }\n\n    function addMember(address _member)external onlyAdmin() {\n        require(msg.sender==admin);\n        members[_member] = true;\n        numMembers++;\n        emit memberAdded(_member);\n    }\n    \n    function addProposal(string calldata proposal, uint expiry)onlyMembers() external{\n        proposals[nextProposalId] = Proposal(nextProposalId,proposal,0,now+expiry,false);\n        nextProposalId++;\n    }\n    function vote(uint id) onlyMembers() external{\n        require(id<nextProposalId);\n        require(now<proposals[id].expiry);\n        require(voted[msg.sender][id]==false);\n        voted[msg.sender][id]=true;\n        proposals[id].votes++;\n        if(proposals[id].votes>numMembers/2 && proposals[id].approved==false){\n            proposals[id].approved=true;\n            emit proposalApproved(proposals[id].proposalName,now);\n        }\n    }\n    modifier onlyMembers(){\n        require(members[msg.sender]==true);\n        _;\n    }\n    modifier onlyAdmin(){\n        require(msg.sender==admin);\n        _;\n    }\n}",
  "sourcePath": "/home/abhinav/projects/voting/contracts/LiquidDemocracy.sol",
  "compiler": {
    "name": "solc",
    "version": "0.5.0+commit.1d4f565a.Emscripten.clang"
  },
  "schemaVersion": "3.0.5",
  "updatedAt": "2019-04-18T08:08:05.419Z",
  "devdoc": {
    "methods": {}
  },
  "userdoc": {
    "methods": {}
  }
}